{
  "address": "0x5FbDB2315678afecb367f032d93F642f64180aa3",
  "abi": [
    {
      "inputs": [
        {
          "internalType": "string",
          "name": "chain",
          "type": "string"
        }
      ],
      "stateMutability": "nonpayable",
      "type": "constructor"
    },
    {
      "inputs": [],
      "name": "DiffusedNfts__AlreadyMinted",
      "type": "error"
    },
    {
      "inputs": [],
      "name": "DiffusedNfts__SignatureFailed",
      "type": "error"
    },
    {
      "anonymous": false,
      "inputs": [
        {
          "indexed": true,
          "internalType": "address",
          "name": "owner",
          "type": "address"
        },
        {
          "indexed": true,
          "internalType": "address",
          "name": "approved",
          "type": "address"
        },
        {
          "indexed": true,
          "internalType": "uint256",
          "name": "tokenId",
          "type": "uint256"
        }
      ],
      "name": "Approval",
      "type": "event"
    },
    {
      "anonymous": false,
      "inputs": [
        {
          "indexed": true,
          "internalType": "address",
          "name": "owner",
          "type": "address"
        },
        {
          "indexed": true,
          "internalType": "address",
          "name": "operator",
          "type": "address"
        },
        {
          "indexed": false,
          "internalType": "bool",
          "name": "approved",
          "type": "bool"
        }
      ],
      "name": "ApprovalForAll",
      "type": "event"
    },
    {
      "anonymous": false,
      "inputs": [
        {
          "indexed": true,
          "internalType": "uint256",
          "name": "tokenId",
          "type": "uint256"
        },
        {
          "indexed": true,
          "internalType": "address",
          "name": "owner",
          "type": "address"
        }
      ],
      "name": "MintedNft",
      "type": "event"
    },
    {
      "anonymous": false,
      "inputs": [
        {
          "indexed": true,
          "internalType": "address",
          "name": "previousOwner",
          "type": "address"
        },
        {
          "indexed": true,
          "internalType": "address",
          "name": "newOwner",
          "type": "address"
        }
      ],
      "name": "OwnershipTransferred",
      "type": "event"
    },
    {
      "anonymous": false,
      "inputs": [
        {
          "indexed": true,
          "internalType": "address",
          "name": "from",
          "type": "address"
        },
        {
          "indexed": true,
          "internalType": "address",
          "name": "to",
          "type": "address"
        },
        {
          "indexed": true,
          "internalType": "uint256",
          "name": "tokenId",
          "type": "uint256"
        }
      ],
      "name": "Transfer",
      "type": "event"
    },
    {
      "inputs": [
        {
          "internalType": "address",
          "name": "to",
          "type": "address"
        },
        {
          "internalType": "uint256",
          "name": "tokenId",
          "type": "uint256"
        }
      ],
      "name": "approve",
      "outputs": [],
      "stateMutability": "nonpayable",
      "type": "function"
    },
    {
      "inputs": [
        {
          "internalType": "address",
          "name": "owner",
          "type": "address"
        }
      ],
      "name": "balanceOf",
      "outputs": [
        {
          "internalType": "uint256",
          "name": "",
          "type": "uint256"
        }
      ],
      "stateMutability": "view",
      "type": "function"
    },
    {
      "inputs": [
        {
          "internalType": "uint256",
          "name": "tokenId",
          "type": "uint256"
        }
      ],
      "name": "getApproved",
      "outputs": [
        {
          "internalType": "address",
          "name": "",
          "type": "address"
        }
      ],
      "stateMutability": "view",
      "type": "function"
    },
    {
      "inputs": [],
      "name": "getNetwork",
      "outputs": [
        {
          "internalType": "string",
          "name": "",
          "type": "string"
        }
      ],
      "stateMutability": "view",
      "type": "function"
    },
    {
      "inputs": [],
      "name": "getTokenCounter",
      "outputs": [
        {
          "internalType": "uint256",
          "name": "",
          "type": "uint256"
        }
      ],
      "stateMutability": "view",
      "type": "function"
    },
    {
      "inputs": [
        {
          "internalType": "address",
          "name": "owner",
          "type": "address"
        },
        {
          "internalType": "address",
          "name": "operator",
          "type": "address"
        }
      ],
      "name": "isApprovedForAll",
      "outputs": [
        {
          "internalType": "bool",
          "name": "",
          "type": "bool"
        }
      ],
      "stateMutability": "view",
      "type": "function"
    },
    {
      "inputs": [
        {
          "internalType": "string",
          "name": "imageUri",
          "type": "string"
        }
      ],
      "name": "isMinted",
      "outputs": [
        {
          "internalType": "bool",
          "name": "",
          "type": "bool"
        }
      ],
      "stateMutability": "view",
      "type": "function"
    },
    {
      "inputs": [
        {
          "internalType": "string",
          "name": "imageUri",
          "type": "string"
        },
        {
          "internalType": "bytes",
          "name": "messageLength",
          "type": "bytes"
        },
        {
          "internalType": "bytes",
          "name": "signature",
          "type": "bytes"
        }
      ],
      "name": "mintDiffusedNft",
      "outputs": [],
      "stateMutability": "nonpayable",
      "type": "function"
    },
    {
      "inputs": [],
      "name": "name",
      "outputs": [
        {
          "internalType": "string",
          "name": "",
          "type": "string"
        }
      ],
      "stateMutability": "view",
      "type": "function"
    },
    {
      "inputs": [],
      "name": "owner",
      "outputs": [
        {
          "internalType": "address",
          "name": "",
          "type": "address"
        }
      ],
      "stateMutability": "view",
      "type": "function"
    },
    {
      "inputs": [
        {
          "internalType": "uint256",
          "name": "tokenId",
          "type": "uint256"
        }
      ],
      "name": "ownerOf",
      "outputs": [
        {
          "internalType": "address",
          "name": "",
          "type": "address"
        }
      ],
      "stateMutability": "view",
      "type": "function"
    },
    {
      "inputs": [],
      "name": "renounceOwnership",
      "outputs": [],
      "stateMutability": "nonpayable",
      "type": "function"
    },
    {
      "inputs": [
        {
          "internalType": "address",
          "name": "from",
          "type": "address"
        },
        {
          "internalType": "address",
          "name": "to",
          "type": "address"
        },
        {
          "internalType": "uint256",
          "name": "tokenId",
          "type": "uint256"
        }
      ],
      "name": "safeTransferFrom",
      "outputs": [],
      "stateMutability": "nonpayable",
      "type": "function"
    },
    {
      "inputs": [
        {
          "internalType": "address",
          "name": "from",
          "type": "address"
        },
        {
          "internalType": "address",
          "name": "to",
          "type": "address"
        },
        {
          "internalType": "uint256",
          "name": "tokenId",
          "type": "uint256"
        },
        {
          "internalType": "bytes",
          "name": "data",
          "type": "bytes"
        }
      ],
      "name": "safeTransferFrom",
      "outputs": [],
      "stateMutability": "nonpayable",
      "type": "function"
    },
    {
      "inputs": [
        {
          "internalType": "address",
          "name": "operator",
          "type": "address"
        },
        {
          "internalType": "bool",
          "name": "approved",
          "type": "bool"
        }
      ],
      "name": "setApprovalForAll",
      "outputs": [],
      "stateMutability": "nonpayable",
      "type": "function"
    },
    {
      "inputs": [
        {
          "internalType": "bytes4",
          "name": "interfaceId",
          "type": "bytes4"
        }
      ],
      "name": "supportsInterface",
      "outputs": [
        {
          "internalType": "bool",
          "name": "",
          "type": "bool"
        }
      ],
      "stateMutability": "view",
      "type": "function"
    },
    {
      "inputs": [],
      "name": "symbol",
      "outputs": [
        {
          "internalType": "string",
          "name": "",
          "type": "string"
        }
      ],
      "stateMutability": "view",
      "type": "function"
    },
    {
      "inputs": [
        {
          "internalType": "uint256",
          "name": "tokenId",
          "type": "uint256"
        }
      ],
      "name": "tokenURI",
      "outputs": [
        {
          "internalType": "string",
          "name": "",
          "type": "string"
        }
      ],
      "stateMutability": "view",
      "type": "function"
    },
    {
      "inputs": [
        {
          "internalType": "address",
          "name": "from",
          "type": "address"
        },
        {
          "internalType": "address",
          "name": "to",
          "type": "address"
        },
        {
          "internalType": "uint256",
          "name": "tokenId",
          "type": "uint256"
        }
      ],
      "name": "transferFrom",
      "outputs": [],
      "stateMutability": "nonpayable",
      "type": "function"
    },
    {
      "inputs": [
        {
          "internalType": "address",
          "name": "newOwner",
          "type": "address"
        }
      ],
      "name": "transferOwnership",
      "outputs": [],
      "stateMutability": "nonpayable",
      "type": "function"
    }
  ],
  "transactionHash": "0xbe63a5bf0938f865b2763863564d86fee1ce95623e814dbd86bb517ac3eaecc3",
  "args": [
    "hardhat"
  ],
  "numDeployments": 1,
  "solcInputHash": "5cbdd1cd12149907847c36bbcfd155d7",
  "bytecode": "0x60806040523480156200001157600080fd5b50604051620040c5380380620040c583398181016040528101906200003791906200036b565b6040518060400160405280600c81526020017f44696666757365644e66747300000000000000000000000000000000000000008152506040518060400160405280600381526020017f44465400000000000000000000000000000000000000000000000000000000008152508160009081620000b4919062000607565b508060019081620000c6919062000607565b505050620000e9620000dd6200010a60201b60201c565b6200011260201b60201c565b8060099081620000fa919062000607565b50600060088190555050620006ee565b600033905090565b6000600760009054906101000a900473ffffffffffffffffffffffffffffffffffffffff16905081600760006101000a81548173ffffffffffffffffffffffffffffffffffffffff021916908373ffffffffffffffffffffffffffffffffffffffff1602179055508173ffffffffffffffffffffffffffffffffffffffff168173ffffffffffffffffffffffffffffffffffffffff167f8be0079c531659141344cd1fd0a4f28419497f9722a3daafe3b4186f6b6457e060405160405180910390a35050565b6000604051905090565b600080fd5b600080fd5b600080fd5b600080fd5b6000601f19601f8301169050919050565b7f4e487b7100000000000000000000000000000000000000000000000000000000600052604160045260246000fd5b6200024182620001f6565b810181811067ffffffffffffffff8211171562000263576200026262000207565b5b80604052505050565b600062000278620001d8565b905062000286828262000236565b919050565b600067ffffffffffffffff821115620002a957620002a862000207565b5b620002b482620001f6565b9050602081019050919050565b60005b83811015620002e1578082015181840152602081019050620002c4565b60008484015250505050565b600062000304620002fe846200028b565b6200026c565b905082815260208101848484011115620003235762000322620001f1565b5b62000330848285620002c1565b509392505050565b600082601f83011262000350576200034f620001ec565b5b815162000362848260208601620002ed565b91505092915050565b600060208284031215620003845762000383620001e2565b5b600082015167ffffffffffffffff811115620003a557620003a4620001e7565b5b620003b38482850162000338565b91505092915050565b600081519050919050565b7f4e487b7100000000000000000000000000000000000000000000000000000000600052602260045260246000fd5b600060028204905060018216806200040f57607f821691505b602082108103620004255762000424620003c7565b5b50919050565b60008190508160005260206000209050919050565b60006020601f8301049050919050565b600082821b905092915050565b6000600883026200048f7fffffffffffffffffffffffffffffffffffffffffffffffffffffffffffffffff8262000450565b6200049b868362000450565b95508019841693508086168417925050509392505050565b6000819050919050565b6000819050919050565b6000620004e8620004e2620004dc84620004b3565b620004bd565b620004b3565b9050919050565b6000819050919050565b6200050483620004c7565b6200051c6200051382620004ef565b8484546200045d565b825550505050565b600090565b6200053362000524565b62000540818484620004f9565b505050565b5b8181101562000568576200055c60008262000529565b60018101905062000546565b5050565b601f821115620005b75762000581816200042b565b6200058c8462000440565b810160208510156200059c578190505b620005b4620005ab8562000440565b83018262000545565b50505b505050565b600082821c905092915050565b6000620005dc60001984600802620005bc565b1980831691505092915050565b6000620005f78383620005c9565b9150826002028217905092915050565b6200061282620003bc565b67ffffffffffffffff8111156200062e576200062d62000207565b5b6200063a8254620003f6565b620006478282856200056c565b600060209050601f8311600181146200067f57600084156200066a578287015190505b620006768582620005e9565b865550620006e6565b601f1984166200068f866200042b565b60005b82811015620006b95784890151825560018201915060208501945060208101905062000692565b86831015620006d95784890151620006d5601f891682620005c9565b8355505b6001600288020188555050505b505050505050565b6139c780620006fe6000396000f3fe608060405234801561001057600080fd5b506004361061012c5760003560e01c80636e02007d116100ad578063a22cb46511610071578063a22cb46514610331578063b88d4fde1461034d578063c87b56dd14610369578063e985e9c514610399578063f2fde38b146103c95761012c565b80636e02007d1461029d57806370a08231146102bb578063715018a6146102eb5780638da5cb5b146102f557806395d89b41146103135761012c565b806315036d45116100f457806315036d45146101e957806323b872dd1461020557806342842e0e146102215780636352211e1461023d57806367ad98da1461026d5761012c565b806301ffc9a71461013157806306fdde031461016157806307e4b7e91461017f578063081812fc1461019d578063095ea7b3146101cd575b600080fd5b61014b60048036038101906101469190612100565b6103e5565b6040516101589190612148565b60405180910390f35b6101696104c7565b60405161017691906121f3565b60405180910390f35b610187610559565b60405161019491906121f3565b60405180910390f35b6101b760048036038101906101b2919061224b565b6105eb565b6040516101c491906122b9565b60405180910390f35b6101e760048036038101906101e29190612300565b610631565b005b61020360048036038101906101fe9190612516565b610748565b005b61021f600480360381019061021a91906125bd565b61089e565b005b61023b600480360381019061023691906125bd565b6108fe565b005b6102576004803603810190610252919061224b565b61091e565b60405161026491906122b9565b60405180910390f35b61028760048036038101906102829190612670565b6109cf565b6040516102949190612148565b60405180910390f35b6102a5610a07565b6040516102b291906126cc565b60405180910390f35b6102d560048036038101906102d091906126e7565b610a11565b6040516102e291906126cc565b60405180910390f35b6102f3610ac8565b005b6102fd610aca565b60405161030a91906122b9565b60405180910390f35b61031b610af4565b60405161032891906121f3565b60405180910390f35b61034b60048036038101906103469190612740565b610b86565b005b61036760048036038101906103629190612780565b610b9c565b005b610383600480360381019061037e919061224b565b610bfe565b60405161039091906121f3565b60405180910390f35b6103b360048036038101906103ae9190612803565b610d10565b6040516103c09190612148565b60405180910390f35b6103e360048036038101906103de91906126e7565b610da4565b005b60007f80ac58cd000000000000000000000000000000000000000000000000000000007bffffffffffffffffffffffffffffffffffffffffffffffffffffffff1916827bffffffffffffffffffffffffffffffffffffffffffffffffffffffff191614806104b057507f5b5e139f000000000000000000000000000000000000000000000000000000007bffffffffffffffffffffffffffffffffffffffffffffffffffffffff1916827bffffffffffffffffffffffffffffffffffffffffffffffffffffffff1916145b806104c057506104bf82610e27565b5b9050919050565b6060600080546104d690612872565b80601f016020809104026020016040519081016040528092919081815260200182805461050290612872565b801561054f5780601f106105245761010080835404028352916020019161054f565b820191906000526020600020905b81548152906001019060200180831161053257829003601f168201915b5050505050905090565b60606009805461056890612872565b80601f016020809104026020016040519081016040528092919081815260200182805461059490612872565b80156105e15780601f106105b6576101008083540402835291602001916105e1565b820191906000526020600020905b8154815290600101906020018083116105c457829003601f168201915b5050505050905090565b60006105f682610e91565b6004600083815260200190815260200160002060009054906101000a900473ffffffffffffffffffffffffffffffffffffffff169050919050565b600061063c8261091e565b90508073ffffffffffffffffffffffffffffffffffffffff168373ffffffffffffffffffffffffffffffffffffffff16036106ac576040517f08c379a00000000000000000000000000000000000000000000000000000000081526004016106a390612915565b60405180910390fd5b8073ffffffffffffffffffffffffffffffffffffffff166106cb610edc565b73ffffffffffffffffffffffffffffffffffffffff1614806106fa57506106f9816106f4610edc565b610d10565b5b610739576040517f08c379a0000000000000000000000000000000000000000000000000000000008152600401610730906129a7565b60405180910390fd5b6107438383610ee4565b505050565b610753838383610f9d565b610789576040517fc951b5e200000000000000000000000000000000000000000000000000000000815260040160405180910390fd5b600a836040516107999190612a03565b908152602001604051809103902060009054906101000a900460ff16156107ec576040517f1787869500000000000000000000000000000000000000000000000000000000815260040160405180910390fd5b6001600a846040516107fe9190612a03565b908152602001604051809103902060006101000a81548160ff0219169083151502179055506008600081548092919061083690612a49565b91905055503373ffffffffffffffffffffffffffffffffffffffff166008547fb069a28fab2f4a275fc364c15d220c5884271a144db6d116d13dcb79c8181c6c60405160405180910390a361088d33600854611059565b61089960085484611077565b505050565b6108af6108a9610edc565b826110e4565b6108ee576040517f08c379a00000000000000000000000000000000000000000000000000000000081526004016108e590612b03565b60405180910390fd5b6108f9838383611179565b505050565b61091983838360405180602001604052806000815250610b9c565b505050565b6000806002600084815260200190815260200160002060009054906101000a900473ffffffffffffffffffffffffffffffffffffffff169050600073ffffffffffffffffffffffffffffffffffffffff168173ffffffffffffffffffffffffffffffffffffffff16036109c6576040517f08c379a00000000000000000000000000000000000000000000000000000000081526004016109bd90612b6f565b60405180910390fd5b80915050919050565b6000600a83836040516109e3929190612bb4565b908152602001604051809103902060009054906101000a900460ff16905092915050565b6000600854905090565b60008073ffffffffffffffffffffffffffffffffffffffff168273ffffffffffffffffffffffffffffffffffffffff1603610a81576040517f08c379a0000000000000000000000000000000000000000000000000000000008152600401610a7890612c3f565b60405180910390fd5b600360008373ffffffffffffffffffffffffffffffffffffffff1673ffffffffffffffffffffffffffffffffffffffff168152602001908152602001600020549050919050565b565b6000600760009054906101000a900473ffffffffffffffffffffffffffffffffffffffff16905090565b606060018054610b0390612872565b80601f0160208091040260200160405190810160405280929190818152602001828054610b2f90612872565b8015610b7c5780601f10610b5157610100808354040283529160200191610b7c565b820191906000526020600020905b815481529060010190602001808311610b5f57829003601f168201915b5050505050905090565b610b98610b91610edc565b83836113df565b5050565b610bad610ba7610edc565b836110e4565b610bec576040517f08c379a0000000000000000000000000000000000000000000000000000000008152600401610be390612b03565b60405180910390fd5b610bf88484848461154b565b50505050565b6060610c0982610e91565b6000600660008481526020019081526020016000208054610c2990612872565b80601f0160208091040260200160405190810160405280929190818152602001828054610c5590612872565b8015610ca25780601f10610c7757610100808354040283529160200191610ca2565b820191906000526020600020905b815481529060010190602001808311610c8557829003601f168201915b505050505090506000610cb36115a7565b90506000815103610cc8578192505050610d0b565b600082511115610cfd578082604051602001610ce5929190612c5f565b60405160208183030381529060405292505050610d0b565b610d06846115e4565b925050505b919050565b6000600560008473ffffffffffffffffffffffffffffffffffffffff1673ffffffffffffffffffffffffffffffffffffffff16815260200190815260200160002060008373ffffffffffffffffffffffffffffffffffffffff1673ffffffffffffffffffffffffffffffffffffffff16815260200190815260200160002060009054906101000a900460ff16905092915050565b610dac61164c565b600073ffffffffffffffffffffffffffffffffffffffff168173ffffffffffffffffffffffffffffffffffffffff1603610e1b576040517f08c379a0000000000000000000000000000000000000000000000000000000008152600401610e1290612cf5565b60405180910390fd5b610e24816116ca565b50565b60007f01ffc9a7000000000000000000000000000000000000000000000000000000007bffffffffffffffffffffffffffffffffffffffffffffffffffffffff1916827bffffffffffffffffffffffffffffffffffffffffffffffffffffffff1916149050919050565b610e9a81611790565b610ed9576040517f08c379a0000000000000000000000000000000000000000000000000000000008152600401610ed090612b6f565b60405180910390fd5b50565b600033905090565b816004600083815260200190815260200160002060006101000a81548173ffffffffffffffffffffffffffffffffffffffff021916908373ffffffffffffffffffffffffffffffffffffffff160217905550808273ffffffffffffffffffffffffffffffffffffffff16610f578361091e565b73ffffffffffffffffffffffffffffffffffffffff167f8c5be1e5ebec7d5bd14f71427d1e84f3dd0314c0f7b2291e5b200ac8c7c3b92560405160405180910390a45050565b6000806040518060400160405280601a81526020017f19457468657265756d205369676e6564204d6573736167653a0a0000000000008152508486336009604051602001610fef959493929190612e3c565b60405160208183030381529060405280519060200120905061100f610aca565b73ffffffffffffffffffffffffffffffffffffffff1661103884836117fc90919063ffffffff16565b73ffffffffffffffffffffffffffffffffffffffff16149150509392505050565b611073828260405180602001604052806000815250611823565b5050565b61108082611790565b6110bf576040517f08c379a00000000000000000000000000000000000000000000000000000000081526004016110b690612efd565b60405180910390fd5b806006600084815260200190815260200160002090816110df91906130b4565b505050565b6000806110f08361091e565b90508073ffffffffffffffffffffffffffffffffffffffff168473ffffffffffffffffffffffffffffffffffffffff16148061113257506111318185610d10565b5b8061117057508373ffffffffffffffffffffffffffffffffffffffff16611158846105eb565b73ffffffffffffffffffffffffffffffffffffffff16145b91505092915050565b8273ffffffffffffffffffffffffffffffffffffffff166111998261091e565b73ffffffffffffffffffffffffffffffffffffffff16146111ef576040517f08c379a00000000000000000000000000000000000000000000000000000000081526004016111e6906131f8565b60405180910390fd5b600073ffffffffffffffffffffffffffffffffffffffff168273ffffffffffffffffffffffffffffffffffffffff160361125e576040517f08c379a00000000000000000000000000000000000000000000000000000000081526004016112559061328a565b60405180910390fd5b61126983838361187e565b611274600082610ee4565b6001600360008573ffffffffffffffffffffffffffffffffffffffff1673ffffffffffffffffffffffffffffffffffffffff16815260200190815260200160002060008282546112c491906132aa565b925050819055506001600360008473ffffffffffffffffffffffffffffffffffffffff1673ffffffffffffffffffffffffffffffffffffffff168152602001908152602001600020600082825461131b91906132de565b92505081905550816002600083815260200190815260200160002060006101000a81548173ffffffffffffffffffffffffffffffffffffffff021916908373ffffffffffffffffffffffffffffffffffffffff160217905550808273ffffffffffffffffffffffffffffffffffffffff168473ffffffffffffffffffffffffffffffffffffffff167fddf252ad1be2c89b69c2b068fc378daa952ba7f163c4a11628f55a4df523b3ef60405160405180910390a46113da838383611883565b505050565b8173ffffffffffffffffffffffffffffffffffffffff168373ffffffffffffffffffffffffffffffffffffffff160361144d576040517f08c379a00000000000000000000000000000000000000000000000000000000081526004016114449061335e565b60405180910390fd5b80600560008573ffffffffffffffffffffffffffffffffffffffff1673ffffffffffffffffffffffffffffffffffffffff16815260200190815260200160002060008473ffffffffffffffffffffffffffffffffffffffff1673ffffffffffffffffffffffffffffffffffffffff16815260200190815260200160002060006101000a81548160ff0219169083151502179055508173ffffffffffffffffffffffffffffffffffffffff168373ffffffffffffffffffffffffffffffffffffffff167f17307eab39ab6107e8899845ad3d59bd9653f200f220920489ca2b5937696c318360405161153e9190612148565b60405180910390a3505050565b611556848484611179565b61156284848484611888565b6115a1576040517f08c379a0000000000000000000000000000000000000000000000000000000008152600401611598906133f0565b60405180910390fd5b50505050565b60606040518060400160405280600781526020017f697066733a2f2f00000000000000000000000000000000000000000000000000815250905090565b60606115ef82610e91565b60006115f96115a7565b905060008151116116195760405180602001604052806000815250611644565b8061162384611a0f565b604051602001611634929190612c5f565b6040516020818303038152906040525b915050919050565b611654610edc565b73ffffffffffffffffffffffffffffffffffffffff16611672610aca565b73ffffffffffffffffffffffffffffffffffffffff16146116c8576040517f08c379a00000000000000000000000000000000000000000000000000000000081526004016116bf9061345c565b60405180910390fd5b565b6000600760009054906101000a900473ffffffffffffffffffffffffffffffffffffffff16905081600760006101000a81548173ffffffffffffffffffffffffffffffffffffffff021916908373ffffffffffffffffffffffffffffffffffffffff1602179055508173ffffffffffffffffffffffffffffffffffffffff168173ffffffffffffffffffffffffffffffffffffffff167f8be0079c531659141344cd1fd0a4f28419497f9722a3daafe3b4186f6b6457e060405160405180910390a35050565b60008073ffffffffffffffffffffffffffffffffffffffff166002600084815260200190815260200160002060009054906101000a900473ffffffffffffffffffffffffffffffffffffffff1673ffffffffffffffffffffffffffffffffffffffff1614159050919050565b600080600061180b8585611b6f565b9150915061181881611bc0565b819250505092915050565b61182d8383611d8c565b61183a6000848484611888565b611879576040517f08c379a0000000000000000000000000000000000000000000000000000000008152600401611870906133f0565b60405180910390fd5b505050565b505050565b505050565b60006118a98473ffffffffffffffffffffffffffffffffffffffff16611f65565b15611a02578373ffffffffffffffffffffffffffffffffffffffff1663150b7a026118d2610edc565b8786866040518563ffffffff1660e01b81526004016118f494939291906134c6565b6020604051808303816000875af192505050801561193057506040513d601f19601f8201168201806040525081019061192d9190613527565b60015b6119b2573d8060008114611960576040519150601f19603f3d011682016040523d82523d6000602084013e611965565b606091505b5060008151036119aa576040517f08c379a00000000000000000000000000000000000000000000000000000000081526004016119a1906133f0565b60405180910390fd5b805181602001fd5b63150b7a0260e01b7bffffffffffffffffffffffffffffffffffffffffffffffffffffffff1916817bffffffffffffffffffffffffffffffffffffffffffffffffffffffff191614915050611a07565b600190505b949350505050565b606060008203611a56576040518060400160405280600181526020017f30000000000000000000000000000000000000000000000000000000000000008152509050611b6a565b600082905060005b60008214611a88578080611a7190612a49565b915050600a82611a819190613583565b9150611a5e565b60008167ffffffffffffffff811115611aa457611aa361234a565b5b6040519080825280601f01601f191660200182016040528015611ad65781602001600182028036833780820191505090505b5090505b60008514611b6357600182611aef91906132aa565b9150600a85611afe91906135b4565b6030611b0a91906132de565b60f81b818381518110611b2057611b1f6135e5565b5b60200101907effffffffffffffffffffffffffffffffffffffffffffffffffffffffffffff1916908160001a905350600a85611b5c9190613583565b9450611ada565b8093505050505b919050565b6000806041835103611bb05760008060006020860151925060408601519150606086015160001a9050611ba487828585611f88565b94509450505050611bb9565b60006002915091505b9250929050565b60006004811115611bd457611bd3613614565b5b816004811115611be757611be6613614565b5b0315611d895760016004811115611c0157611c00613614565b5b816004811115611c1457611c13613614565b5b03611c54576040517f08c379a0000000000000000000000000000000000000000000000000000000008152600401611c4b9061368f565b60405180910390fd5b60026004811115611c6857611c67613614565b5b816004811115611c7b57611c7a613614565b5b03611cbb576040517f08c379a0000000000000000000000000000000000000000000000000000000008152600401611cb2906136fb565b60405180910390fd5b60036004811115611ccf57611cce613614565b5b816004811115611ce257611ce1613614565b5b03611d22576040517f08c379a0000000000000000000000000000000000000000000000000000000008152600401611d199061378d565b60405180910390fd5b600480811115611d3557611d34613614565b5b816004811115611d4857611d47613614565b5b03611d88576040517f08c379a0000000000000000000000000000000000000000000000000000000008152600401611d7f9061381f565b60405180910390fd5b5b50565b600073ffffffffffffffffffffffffffffffffffffffff168273ffffffffffffffffffffffffffffffffffffffff1603611dfb576040517f08c379a0000000000000000000000000000000000000000000000000000000008152600401611df29061388b565b60405180910390fd5b611e0481611790565b15611e44576040517f08c379a0000000000000000000000000000000000000000000000000000000008152600401611e3b906138f7565b60405180910390fd5b611e506000838361187e565b6001600360008473ffffffffffffffffffffffffffffffffffffffff1673ffffffffffffffffffffffffffffffffffffffff1681526020019081526020016000206000828254611ea091906132de565b92505081905550816002600083815260200190815260200160002060006101000a81548173ffffffffffffffffffffffffffffffffffffffff021916908373ffffffffffffffffffffffffffffffffffffffff160217905550808273ffffffffffffffffffffffffffffffffffffffff16600073ffffffffffffffffffffffffffffffffffffffff167fddf252ad1be2c89b69c2b068fc378daa952ba7f163c4a11628f55a4df523b3ef60405160405180910390a4611f6160008383611883565b5050565b6000808273ffffffffffffffffffffffffffffffffffffffff163b119050919050565b6000807f7fffffffffffffffffffffffffffffff5d576e7357a4501ddfe92f46681b20a08360001c1115611fc357600060039150915061208b565b601b8560ff1614158015611fdb5750601c8560ff1614155b15611fed57600060049150915061208b565b600060018787878760405160008152602001604052604051612012949392919061394c565b6020604051602081039080840390855afa158015612034573d6000803e3d6000fd5b505050602060405103519050600073ffffffffffffffffffffffffffffffffffffffff168173ffffffffffffffffffffffffffffffffffffffff16036120825760006001925092505061208b565b80600092509250505b94509492505050565b6000604051905090565b600080fd5b600080fd5b60007fffffffff0000000000000000000000000000000000000000000000000000000082169050919050565b6120dd816120a8565b81146120e857600080fd5b50565b6000813590506120fa816120d4565b92915050565b6000602082840312156121165761211561209e565b5b6000612124848285016120eb565b91505092915050565b60008115159050919050565b6121428161212d565b82525050565b600060208201905061215d6000830184612139565b92915050565b600081519050919050565b600082825260208201905092915050565b60005b8381101561219d578082015181840152602081019050612182565b60008484015250505050565b6000601f19601f8301169050919050565b60006121c582612163565b6121cf818561216e565b93506121df81856020860161217f565b6121e8816121a9565b840191505092915050565b6000602082019050818103600083015261220d81846121ba565b905092915050565b6000819050919050565b61222881612215565b811461223357600080fd5b50565b6000813590506122458161221f565b92915050565b6000602082840312156122615761226061209e565b5b600061226f84828501612236565b91505092915050565b600073ffffffffffffffffffffffffffffffffffffffff82169050919050565b60006122a382612278565b9050919050565b6122b381612298565b82525050565b60006020820190506122ce60008301846122aa565b92915050565b6122dd81612298565b81146122e857600080fd5b50565b6000813590506122fa816122d4565b92915050565b600080604083850312156123175761231661209e565b5b6000612325858286016122eb565b925050602061233685828601612236565b9150509250929050565b600080fd5b600080fd5b7f4e487b7100000000000000000000000000000000000000000000000000000000600052604160045260246000fd5b612382826121a9565b810181811067ffffffffffffffff821117156123a1576123a061234a565b5b80604052505050565b60006123b4612094565b90506123c08282612379565b919050565b600067ffffffffffffffff8211156123e0576123df61234a565b5b6123e9826121a9565b9050602081019050919050565b82818337600083830152505050565b6000612418612413846123c5565b6123aa565b90508281526020810184848401111561243457612433612345565b5b61243f8482856123f6565b509392505050565b600082601f83011261245c5761245b612340565b5b813561246c848260208601612405565b91505092915050565b600067ffffffffffffffff8211156124905761248f61234a565b5b612499826121a9565b9050602081019050919050565b60006124b96124b484612475565b6123aa565b9050828152602081018484840111156124d5576124d4612345565b5b6124e08482856123f6565b509392505050565b600082601f8301126124fd576124fc612340565b5b813561250d8482602086016124a6565b91505092915050565b60008060006060848603121561252f5761252e61209e565b5b600084013567ffffffffffffffff81111561254d5761254c6120a3565b5b61255986828701612447565b935050602084013567ffffffffffffffff81111561257a576125796120a3565b5b612586868287016124e8565b925050604084013567ffffffffffffffff8111156125a7576125a66120a3565b5b6125b3868287016124e8565b9150509250925092565b6000806000606084860312156125d6576125d561209e565b5b60006125e4868287016122eb565b93505060206125f5868287016122eb565b925050604061260686828701612236565b9150509250925092565b600080fd5b600080fd5b60008083601f8401126126305761262f612340565b5b8235905067ffffffffffffffff81111561264d5761264c612610565b5b60208301915083600182028301111561266957612668612615565b5b9250929050565b600080602083850312156126875761268661209e565b5b600083013567ffffffffffffffff8111156126a5576126a46120a3565b5b6126b18582860161261a565b92509250509250929050565b6126c681612215565b82525050565b60006020820190506126e160008301846126bd565b92915050565b6000602082840312156126fd576126fc61209e565b5b600061270b848285016122eb565b91505092915050565b61271d8161212d565b811461272857600080fd5b50565b60008135905061273a81612714565b92915050565b600080604083850312156127575761275661209e565b5b6000612765858286016122eb565b92505060206127768582860161272b565b9150509250929050565b6000806000806080858703121561279a5761279961209e565b5b60006127a8878288016122eb565b94505060206127b9878288016122eb565b93505060406127ca87828801612236565b925050606085013567ffffffffffffffff8111156127eb576127ea6120a3565b5b6127f7878288016124e8565b91505092959194509250565b6000806040838503121561281a5761281961209e565b5b6000612828858286016122eb565b9250506020612839858286016122eb565b9150509250929050565b7f4e487b7100000000000000000000000000000000000000000000000000000000600052602260045260246000fd5b6000600282049050600182168061288a57607f821691505b60208210810361289d5761289c612843565b5b50919050565b7f4552433732313a20617070726f76616c20746f2063757272656e74206f776e6560008201527f7200000000000000000000000000000000000000000000000000000000000000602082015250565b60006128ff60218361216e565b915061290a826128a3565b604082019050919050565b6000602082019050818103600083015261292e816128f2565b9050919050565b7f4552433732313a20617070726f76652063616c6c6572206973206e6f7420746f60008201527f6b656e206f776e6572206e6f7220617070726f76656420666f7220616c6c0000602082015250565b6000612991603e8361216e565b915061299c82612935565b604082019050919050565b600060208201905081810360008301526129c081612984565b9050919050565b600081905092915050565b60006129dd82612163565b6129e781856129c7565b93506129f781856020860161217f565b80840191505092915050565b6000612a0f82846129d2565b915081905092915050565b7f4e487b7100000000000000000000000000000000000000000000000000000000600052601160045260246000fd5b6000612a5482612215565b91507fffffffffffffffffffffffffffffffffffffffffffffffffffffffffffffffff8203612a8657612a85612a1a565b5b600182019050919050565b7f4552433732313a2063616c6c6572206973206e6f7420746f6b656e206f776e6560008201527f72206e6f7220617070726f766564000000000000000000000000000000000000602082015250565b6000612aed602e8361216e565b9150612af882612a91565b604082019050919050565b60006020820190508181036000830152612b1c81612ae0565b9050919050565b7f4552433732313a20696e76616c696420746f6b656e2049440000000000000000600082015250565b6000612b5960188361216e565b9150612b6482612b23565b602082019050919050565b60006020820190508181036000830152612b8881612b4c565b9050919050565b6000612b9b83856129c7565b9350612ba88385846123f6565b82840190509392505050565b6000612bc1828486612b8f565b91508190509392505050565b7f4552433732313a2061646472657373207a65726f206973206e6f74206120766160008201527f6c6964206f776e65720000000000000000000000000000000000000000000000602082015250565b6000612c2960298361216e565b9150612c3482612bcd565b604082019050919050565b60006020820190508181036000830152612c5881612c1c565b9050919050565b6000612c6b82856129d2565b9150612c7782846129d2565b91508190509392505050565b7f4f776e61626c653a206e6577206f776e657220697320746865207a65726f206160008201527f6464726573730000000000000000000000000000000000000000000000000000602082015250565b6000612cdf60268361216e565b9150612cea82612c83565b604082019050919050565b60006020820190508181036000830152612d0e81612cd2565b9050919050565b600081519050919050565b600081905092915050565b6000612d3682612d15565b612d408185612d20565b9350612d5081856020860161217f565b80840191505092915050565b60008160601b9050919050565b6000612d7482612d5c565b9050919050565b6000612d8682612d69565b9050919050565b612d9e612d9982612298565b612d7b565b82525050565b60008190508160005260206000209050919050565b60008154612dc681612872565b612dd081866129c7565b94506001821660008114612deb5760018114612e0057612e33565b60ff1983168652811515820286019350612e33565b612e0985612da4565b60005b83811015612e2b57815481890152600182019150602081019050612e0c565b838801955050505b50505092915050565b6000612e4882886129d2565b9150612e548287612d2b565b9150612e6082866129d2565b9150612e6c8285612d8d565b601482019150612e7c8284612db9565b91508190509695505050505050565b7f45524337323155524953746f726167653a2055524920736574206f66206e6f6e60008201527f6578697374656e7420746f6b656e000000000000000000000000000000000000602082015250565b6000612ee7602e8361216e565b9150612ef282612e8b565b604082019050919050565b60006020820190508181036000830152612f1681612eda565b9050919050565b60006020601f8301049050919050565b600082821b905092915050565b600060088302612f6a7fffffffffffffffffffffffffffffffffffffffffffffffffffffffffffffffff82612f2d565b612f748683612f2d565b95508019841693508086168417925050509392505050565b6000819050919050565b6000612fb1612fac612fa784612215565b612f8c565b612215565b9050919050565b6000819050919050565b612fcb83612f96565b612fdf612fd782612fb8565b848454612f3a565b825550505050565b600090565b612ff4612fe7565b612fff818484612fc2565b505050565b5b8181101561302357613018600082612fec565b600181019050613005565b5050565b601f8211156130685761303981612da4565b61304284612f1d565b81016020851015613051578190505b61306561305d85612f1d565b830182613004565b50505b505050565b600082821c905092915050565b600061308b6000198460080261306d565b1980831691505092915050565b60006130a4838361307a565b9150826002028217905092915050565b6130bd82612163565b67ffffffffffffffff8111156130d6576130d561234a565b5b6130e08254612872565b6130eb828285613027565b600060209050601f83116001811461311e576000841561310c578287015190505b6131168582613098565b86555061317e565b601f19841661312c86612da4565b60005b828110156131545784890151825560018201915060208501945060208101905061312f565b86831015613171578489015161316d601f89168261307a565b8355505b6001600288020188555050505b505050505050565b7f4552433732313a207472616e736665722066726f6d20696e636f72726563742060008201527f6f776e6572000000000000000000000000000000000000000000000000000000602082015250565b60006131e260258361216e565b91506131ed82613186565b604082019050919050565b60006020820190508181036000830152613211816131d5565b9050919050565b7f4552433732313a207472616e7366657220746f20746865207a65726f2061646460008201527f7265737300000000000000000000000000000000000000000000000000000000602082015250565b600061327460248361216e565b915061327f82613218565b604082019050919050565b600060208201905081810360008301526132a381613267565b9050919050565b60006132b582612215565b91506132c083612215565b92508282039050818111156132d8576132d7612a1a565b5b92915050565b60006132e982612215565b91506132f483612215565b925082820190508082111561330c5761330b612a1a565b5b92915050565b7f4552433732313a20617070726f766520746f2063616c6c657200000000000000600082015250565b600061334860198361216e565b915061335382613312565b602082019050919050565b600060208201905081810360008301526133778161333b565b9050919050565b7f4552433732313a207472616e7366657220746f206e6f6e20455243373231526560008201527f63656976657220696d706c656d656e7465720000000000000000000000000000602082015250565b60006133da60328361216e565b91506133e58261337e565b604082019050919050565b60006020820190508181036000830152613409816133cd565b9050919050565b7f4f776e61626c653a2063616c6c6572206973206e6f7420746865206f776e6572600082015250565b600061344660208361216e565b915061345182613410565b602082019050919050565b6000602082019050818103600083015261347581613439565b9050919050565b600082825260208201905092915050565b600061349882612d15565b6134a2818561347c565b93506134b281856020860161217f565b6134bb816121a9565b840191505092915050565b60006080820190506134db60008301876122aa565b6134e860208301866122aa565b6134f560408301856126bd565b8181036060830152613507818461348d565b905095945050505050565b600081519050613521816120d4565b92915050565b60006020828403121561353d5761353c61209e565b5b600061354b84828501613512565b91505092915050565b7f4e487b7100000000000000000000000000000000000000000000000000000000600052601260045260246000fd5b600061358e82612215565b915061359983612215565b9250826135a9576135a8613554565b5b828204905092915050565b60006135bf82612215565b91506135ca83612215565b9250826135da576135d9613554565b5b828206905092915050565b7f4e487b7100000000000000000000000000000000000000000000000000000000600052603260045260246000fd5b7f4e487b7100000000000000000000000000000000000000000000000000000000600052602160045260246000fd5b7f45434453413a20696e76616c6964207369676e61747572650000000000000000600082015250565b600061367960188361216e565b915061368482613643565b602082019050919050565b600060208201905081810360008301526136a88161366c565b9050919050565b7f45434453413a20696e76616c6964207369676e6174757265206c656e67746800600082015250565b60006136e5601f8361216e565b91506136f0826136af565b602082019050919050565b60006020820190508181036000830152613714816136d8565b9050919050565b7f45434453413a20696e76616c6964207369676e6174757265202773272076616c60008201527f7565000000000000000000000000000000000000000000000000000000000000602082015250565b600061377760228361216e565b91506137828261371b565b604082019050919050565b600060208201905081810360008301526137a68161376a565b9050919050565b7f45434453413a20696e76616c6964207369676e6174757265202776272076616c60008201527f7565000000000000000000000000000000000000000000000000000000000000602082015250565b600061380960228361216e565b9150613814826137ad565b604082019050919050565b60006020820190508181036000830152613838816137fc565b9050919050565b7f4552433732313a206d696e7420746f20746865207a65726f2061646472657373600082015250565b600061387560208361216e565b91506138808261383f565b602082019050919050565b600060208201905081810360008301526138a481613868565b9050919050565b7f4552433732313a20746f6b656e20616c7265616479206d696e74656400000000600082015250565b60006138e1601c8361216e565b91506138ec826138ab565b602082019050919050565b60006020820190508181036000830152613910816138d4565b9050919050565b6000819050919050565b61392a81613917565b82525050565b600060ff82169050919050565b61394681613930565b82525050565b60006080820190506139616000830187613921565b61396e602083018661393d565b61397b6040830185613921565b6139886060830184613921565b9594505050505056fea2646970667358221220eeffb765b3c33ebccfaed21cac7b4e4b32a8ea510f11ef0424890cf3b9729b7764736f6c63430008100033",
  "devdoc": {
    "author": "Uladzimir Kireyeu",
    "details": "To mint one would need a signature from the server, it is done to restrict nfts only to ai-generated images",
    "kind": "dev",
    "methods": {
      "approve(address,uint256)": {
        "details": "See {IERC721-approve}."
      },
      "balanceOf(address)": {
        "details": "See {IERC721-balanceOf}."
      },
      "getApproved(uint256)": {
        "details": "See {IERC721-getApproved}."
      },
      "isApprovedForAll(address,address)": {
        "details": "See {IERC721-isApprovedForAll}."
      },
      "mintDiffusedNft(string,bytes,bytes)": {
        "details": "User must have a signature from the server to perform mint",
        "params": {
          "imageUri": "The URI given by the server",
          "messageLength": "Length of the message: '0x' + Buffer.from((String(message.length))).toString('hex')",
          "signature": "Signature of the message provided by the server"
        }
      },
      "name()": {
        "details": "See {IERC721Metadata-name}."
      },
      "owner()": {
        "details": "Returns the address of the current owner."
      },
      "ownerOf(uint256)": {
        "details": "See {IERC721-ownerOf}."
      },
      "renounceOwnership()": {
        "details": "Renounce is disabled due to the absence of need"
      },
      "safeTransferFrom(address,address,uint256)": {
        "details": "See {IERC721-safeTransferFrom}."
      },
      "safeTransferFrom(address,address,uint256,bytes)": {
        "details": "See {IERC721-safeTransferFrom}."
      },
      "setApprovalForAll(address,bool)": {
        "details": "See {IERC721-setApprovalForAll}."
      },
      "supportsInterface(bytes4)": {
        "details": "See {IERC165-supportsInterface}."
      },
      "symbol()": {
        "details": "See {IERC721Metadata-symbol}."
      },
      "tokenURI(uint256)": {
        "details": "See {IERC721Metadata-tokenURI}."
      },
      "transferFrom(address,address,uint256)": {
        "details": "See {IERC721-transferFrom}."
      },
      "transferOwnership(address)": {
        "details": "Transfers ownership of the contract to a new account (`newOwner`). Can only be called by the current owner."
      }
    },
    "title": "AI-generated NFT",
    "version": 1
  },
  "userdoc": {
    "kind": "user",
    "methods": {
      "getTokenCounter()": {
        "notice": "Returns id which will be used for the next mint"
      },
      "mintDiffusedNft(string,bytes,bytes)": {
        "notice": "Mints NFT with a given image"
      }
    },
    "notice": "ERC721 compatible contract to prove owning generated picture",
    "version": 1
  },
  "storageLayout": {
    "storage": [
      {
        "astId": 178,
        "contract": "contracts/DiffusedNfts.sol:DiffusedNfts",
        "label": "_name",
        "offset": 0,
        "slot": "0",
        "type": "t_string_storage"
      },
      {
        "astId": 180,
        "contract": "contracts/DiffusedNfts.sol:DiffusedNfts",
        "label": "_symbol",
        "offset": 0,
        "slot": "1",
        "type": "t_string_storage"
      },
      {
        "astId": 184,
        "contract": "contracts/DiffusedNfts.sol:DiffusedNfts",
        "label": "_owners",
        "offset": 0,
        "slot": "2",
        "type": "t_mapping(t_uint256,t_address)"
      },
      {
        "astId": 188,
        "contract": "contracts/DiffusedNfts.sol:DiffusedNfts",
        "label": "_balances",
        "offset": 0,
        "slot": "3",
        "type": "t_mapping(t_address,t_uint256)"
      },
      {
        "astId": 192,
        "contract": "contracts/DiffusedNfts.sol:DiffusedNfts",
        "label": "_tokenApprovals",
        "offset": 0,
        "slot": "4",
        "type": "t_mapping(t_uint256,t_address)"
      },
      {
        "astId": 198,
        "contract": "contracts/DiffusedNfts.sol:DiffusedNfts",
        "label": "_operatorApprovals",
        "offset": 0,
        "slot": "5",
        "type": "t_mapping(t_address,t_mapping(t_address,t_bool))"
      },
      {
        "astId": 1166,
        "contract": "contracts/DiffusedNfts.sol:DiffusedNfts",
        "label": "_tokenURIs",
        "offset": 0,
        "slot": "6",
        "type": "t_mapping(t_uint256,t_string_storage)"
      },
      {
        "astId": 7,
        "contract": "contracts/DiffusedNfts.sol:DiffusedNfts",
        "label": "_owner",
        "offset": 0,
        "slot": "7",
        "type": "t_address"
      },
      {
        "astId": 3274,
        "contract": "contracts/DiffusedNfts.sol:DiffusedNfts",
        "label": "s_tokenCounter",
        "offset": 0,
        "slot": "8",
        "type": "t_uint256"
      },
      {
        "astId": 3276,
        "contract": "contracts/DiffusedNfts.sol:DiffusedNfts",
        "label": "s_chain",
        "offset": 0,
        "slot": "9",
        "type": "t_string_storage"
      },
      {
        "astId": 3280,
        "contract": "contracts/DiffusedNfts.sol:DiffusedNfts",
        "label": "s_ifMinted",
        "offset": 0,
        "slot": "10",
        "type": "t_mapping(t_string_memory_ptr,t_bool)"
      }
    ],
    "types": {
      "t_address": {
        "encoding": "inplace",
        "label": "address",
        "numberOfBytes": "20"
      },
      "t_bool": {
        "encoding": "inplace",
        "label": "bool",
        "numberOfBytes": "1"
      },
      "t_mapping(t_address,t_bool)": {
        "encoding": "mapping",
        "key": "t_address",
        "label": "mapping(address => bool)",
        "numberOfBytes": "32",
        "value": "t_bool"
      },
      "t_mapping(t_address,t_mapping(t_address,t_bool))": {
        "encoding": "mapping",
        "key": "t_address",
        "label": "mapping(address => mapping(address => bool))",
        "numberOfBytes": "32",
        "value": "t_mapping(t_address,t_bool)"
      },
      "t_mapping(t_address,t_uint256)": {
        "encoding": "mapping",
        "key": "t_address",
        "label": "mapping(address => uint256)",
        "numberOfBytes": "32",
        "value": "t_uint256"
      },
      "t_mapping(t_string_memory_ptr,t_bool)": {
        "encoding": "mapping",
        "key": "t_string_memory_ptr",
        "label": "mapping(string => bool)",
        "numberOfBytes": "32",
        "value": "t_bool"
      },
      "t_mapping(t_uint256,t_address)": {
        "encoding": "mapping",
        "key": "t_uint256",
        "label": "mapping(uint256 => address)",
        "numberOfBytes": "32",
        "value": "t_address"
      },
      "t_mapping(t_uint256,t_string_storage)": {
        "encoding": "mapping",
        "key": "t_uint256",
        "label": "mapping(uint256 => string)",
        "numberOfBytes": "32",
        "value": "t_string_storage"
      },
      "t_string_memory_ptr": {
        "encoding": "bytes",
        "label": "string",
        "numberOfBytes": "32"
      },
      "t_string_storage": {
        "encoding": "bytes",
        "label": "string",
        "numberOfBytes": "32"
      },
      "t_uint256": {
        "encoding": "inplace",
        "label": "uint256",
        "numberOfBytes": "32"
      }
    }
  }
}